{
  "difficulty": "0x2",
  "extraData": "0xd98301090a846765746889676f312e31352e3133856c696e757800000000000039dcd0533404dbed81eacc872367917ea220d5aaa3dbe3121f5f52368d18742d75ef7038414cb9ffae3cb26e5576b3ce27942017d72510a527e17f7f70a59f4d01",
  "gasLimit": "0xe4e1c0",
  "gasUsed": "0x626a9",
  "hash": "0x41dd6bf354e9df7927eef0aae55729ba1c820d972c406a3a5270a745d67bbc1b",
  "logsBloom": "0x00000000000000000000000000000000000000000000000000000000000000000000000000000000000000000000000000000000000000000000000000000000000000000000000000000000000000000000000000000000000000000000000000000000000000000000000000000000000000000000000000000000000000000000000000000000000000000000000000000000000000000000000000000000000000000000000000000000000000000000000000000000000000000000000000000000000000000000000000000000000000000000000000000000000000000000000000000000000000000000000000000000000000000000000000000000",
  "miner": "0x0000000000000000000000000000000000000000",
  "mixHash": "0x0000000000000000000000000000000000000000000000000000000000000000",
  "nonce": "0x0000000000000000",
  "number": "0x1d24c0",
  "parentHash": "0x2c92888c89920d6f22529a5ec4770210ffb7b6eee8880b5c836d98870d1b8cc9",
  "receiptsRoot": "0x9b8a0bc42621f13fcb28def1356c4d1d7f8d8cba56a00b4e4822048ceff1f7a8",
  "sha3Uncles": "0x1dcc4de8dec75d7aab85b567b6ccd41ad312451b948a7413f0a142fd40d49347",
  "size": "0xe19",
  "stateRoot": "0xe57cffdd0d0fb3feebbc45c8ba26f7ebe497f7375a3015fcc65e23984991738c",
  "timestamp": "0x63468925",
  "totalDifficulty": "0x3a4981",
  "transactions": [
    {
      "blockHash": "0x41dd6bf354e9df7927eef0aae55729ba1c820d972c406a3a5270a745d67bbc1b",
      "blockNumber": "0x1d24c0",
      "from": "0x000000000002e33d9a86567c6dfe6d92f6777d1e",
      "gas": "0x62be4",
      "gasPrice": "0x1",
      "hash": "0xfa6db346b928db4c98ebf72a14ac52d0c884e2cfa70cf40816542c9d7d1caf13",
      "input": "0x00000000db8fc5f9160aa77bcf6b61fb51c5e2b49fd213c3cd349333dd84589450d46d24236fa12d05798a4c97d408e81a1d7fbade1537d6203c001215ed2cfd33675e1a000000000000000000000000000000000000000000000000000000000000001c00000000000000000000000000000000000000000000000000000000000000800000000000000000000000000000000000000000000000000000000000000055000000000000000000000000000000000000000000000000016345785d8a000000000000000000000000000000000000000000000000000000000000000000003031202020202020f500000000000000000000000000000000001500000000000000000000000000000000000000000000000000000000000000000000000271608060405261025e806100136000396000f3fe6080604052600436106100335760003560e01c801561003f5780636dbf2fa01461004957806383197ef01461007257600080fd5b3661003a57005b600080fd5b610047610078565b005b61005c610057366004610135565b6100a7565b60405161006991906101ca565b60405180910390f35b61004730ff5b60405133904780156108fc02916000818181858888f193505050501580156100a4573d6000803e3d6000fd5b50565b60606001600160a01b0385166100bc57600080fd5b600080866001600160a01b03168686866040516100da929190610218565b60006040518083038185875af1925050503d8060008114610117576040519150601f19603f3d011682016040523d82523d6000602084013e61011c565b606091505b50915091508161012b57600080fd5b9695505050505050565b6000806000806060858703121561014b57600080fd5b84356001600160a01b038116811461016257600080fd5b935060208501359250604085013567ffffffffffffffff8082111561018657600080fd5b818701915087601f83011261019a57600080fd5b8135818111156101a957600080fd5b8860208285010111156101bb57600080fd5b95989497505060200194505050565b600060208083528351808285015260005b818110156101f7578581018301518582016040015282016101db565b506000604082860101526040601f19601f8301168501019250505092915050565b818382376000910190815291905056fea2646970667358221220253e1354aa1f28c312aec4458a9537037be782c81d97c6ebc3f321d807dfe25d64736f6c634300081100330000000000000000000000000000000000000000000000000000000000000000000000000000000000000000000000000000000000000000000000ec2a87e85251ba35abdd3e4e5414bd00c2f3f99a3032202020202020fe0051001e000000000000000000000000000000000000000000000000000000000000000000000000000000000000000000000000000000000000000000000000000000ec2a87e85251ba35abdd3e4e5414bd00c2f3f99a3033202043414c4cf1000000000000000000000000000000000004006dbf2fa0000000000000000000000000000000000000df8c944e775bde7af503009992830000000000000000000000000000000000000000000000000000000000000000000000000000000000000000000000000000000000000000000000000000006000000000000000000000000000000000000000000000000000000000000000000000000000000000000000000000000000000000000000000000000000000000000000000000000000000000ec2a87e85251ba35abdd3e4e5414bd00c2f3f99a3034202043414c4cf10000000000000000000000000000000000000083197ef00000000000000000000000000000000000000000000000000000000000000000000000000000000000000000ec2a87e85251ba35abdd3e4e5414bd00c2f3f99a3035202043414c4cf10000000000000000000000000000000000000000000000000000000000000000000000000000000000000000000000016345785d8a000000000000000000000000000000000000000000000000000000000000000000013036202020202020f500000000000000000000000000000000001500000000000000000000000000000000000000000000000000000000000000000000000271608060405261025e806100136000396000f3fe6080604052600436106100335760003560e01c801561003f5780636dbf2fa01461004957806383197ef01461007257600080fd5b3661003a57005b600080fd5b610047610078565b005b61005c610057366004610135565b6100a7565b60405161006991906101ca565b60405180910390f35b61004730ff5b60405133904780156108fc02916000818181858888f193505050501580156100a4573d6000803e3d6000fd5b50565b60606001600160a01b0385166100bc57600080fd5b600080866001600160a01b03168686866040516100da929190610218565b60006040518083038185875af1925050503d8060008114610117576040519150601f19603f3d011682016040523d82523d6000602084013e61011c565b606091505b50915091508161012b57600080fd5b9695505050505050565b6000806000806060858703121561014b57600080fd5b84356001600160a01b038116811461016257600080fd5b935060208501359250604085013567ffffffffffffffff8082111561018657600080fd5b818701915087601f83011261019a57600080fd5b8135818111156101a957600080fd5b8860208285010111156101bb57600080fd5b95989497505060200194505050565b600060208083528351808285015260005b818110156101f7578581018301518582016040015282016101db565b506000604082860101526040601f19601f8301168501019250505092915050565b818382376000910190815291905056fea2646970667358221220253e1354aa1f28c312aec4458a9537037be782c81d97c6ebc3f321d807dfe25d64736f6c634300081100330000000000000000000000000000000000000000000000000000000000000000000000000000000000000000000028000000000000000000000000802bb2e2eefdfa1b7d2a1e2042431624f764eadc3037202020202020fe0051001e000000000000000000000000000000000000000000000000000000000000000000000000000000000000000000000000000000000000000000000000000000802bb2e2eefdfa1b7d2a1e2042431624f764eadc3038202043414c4cf1000000000000000000000000000000000004006dbf2fa0000000000000000000000000000000000000df8c944e775bde7af503009992830000000000000000000000000000000000000000000000000000000000000000000000000000000000000000000000000000000000000000000000000000006000000000000000000000000000000000000000000000000000000000000000000000000000000000000000000000000000000000000000000000000000000000000000000000000000000000802bb2e2eefdfa1b7d2a1e2042431624f764eadc3039202043414c4cf10000000000000000000000000000000000000083197ef00000000000000000000000000000000000000000000000000000000000000000000000000000000000000000802bb2e2eefdfa1b7d2a1e2042431624f764eadc3130202043414c4cf1000000000000000000000000000000000000000000000000000000000000000000000000000000000000000000000000000000000000010000000000000000000000000000000000000000000000000000000000000000313152455455524ef3000000005a01470000000000000000000002000000000000000000000000000000000000000000000000000000000000000000000000000000000000000000000000000000000000000000000000000000000000000000",
      "nonce": "0x8",
      "to": "0x000000000000df8c944e775bde7af50300999283",
      "transactionIndex": "0x0",
      "value": "0x16345785d8a0000",
      "v": "0x36b",
      "r": "0xb5022cde5714491b6185b46f09f0d021e9379353020e4da895bb8b65b6e1c802",
      "s": "0x13fc2716d2d92ae43cf470b2b2352280a4f018c0d9b805042f01ea3b22cc6618",
      "queueOrigin": "sequencer",
      "l1TxOrigin": null,
      "l1BlockNumber": "0x765849",
      "l1Timestamp": "0x63468925",
      "index": "0x1d24bf",
      "queueIndex": null,
      "rawTransaction": "0xf90bb0080183062be494000000000000df8c944e775bde7af5030099928388016345785d8a0000b90b4400000000db8fc5f9160aa77bcf6b61fb51c5e2b49fd213c3cd349333dd84589450d46d24236fa12d05798a4c97d408e81a1d7fbade1537d6203c001215ed2cfd33675e1a000000000000000000000000000000000000000000000000000000000000001c00000000000000000000000000000000000000000000000000000000000000800000000000000000000000000000000000000000000000000000000000000055000000000000000000000000000000000000000000000000016345785d8a000000000000000000000000000000000000000000000000000000000000000000003031202020202020f500000000000000000000000000000000001500000000000000000000000000000000000000000000000000000000000000000000000271608060405261025e806100136000396000f3fe6080604052600436106100335760003560e01c801561003f5780636dbf2fa01461004957806383197ef01461007257600080fd5b3661003a57005b600080fd5b610047610078565b005b61005c610057366004610135565b6100a7565b60405161006991906101ca565b60405180910390f35b61004730ff5b60405133904780156108fc02916000818181858888f193505050501580156100a4573d6000803e3d6000fd5b50565b60606001600160a01b0385166100bc57600080fd5b600080866001600160a01b03168686866040516100da929190610218565b60006040518083038185875af1925050503d8060008114610117576040519150601f19603f3d011682016040523d82523d6000602084013e61011c565b606091505b50915091508161012b57600080fd5b9695505050505050565b6000806000806060858703121561014b57600080fd5b84356001600160a01b038116811461016257600080fd5b935060208501359250604085013567ffffffffffffffff8082111561018657600080fd5b818701915087601f83011261019a57600080fd5b8135818111156101a957600080fd5b8860208285010111156101bb57600080fd5b95989497505060200194505050565b600060208083528351808285015260005b818110156101f7578581018301518582016040015282016101db565b506000604082860101526040601f19601f8301168501019250505092915050565b818382376000910190815291905056fea2646970667358221220253e1354aa1f28c312aec4458a9537037be782c81d97c6ebc3f321d807dfe25d64736f6c634300081100330000000000000000000000000000000000000000000000000000000000000000000000000000000000000000000000000000000000000000000000ec2a87e85251ba35abdd3e4e5414bd00c2f3f99a3032202020202020fe0051001e000000000000000000000000000000000000000000000000000000000000000000000000000000000000000000000000000000000000000000000000000000ec2a87e85251ba35abdd3e4e5414bd00c2f3f99a3033202043414c4cf1000000000000000000000000000000000004006dbf2fa0000000000000000000000000000000000000df8c944e775bde7af503009992830000000000000000000000000000000000000000000000000000000000000000000000000000000000000000000000000000000000000000000000000000006000000000000000000000000000000000000000000000000000000000000000000000000000000000000000000000000000000000000000000000000000000000000000000000000000000000ec2a87e85251ba35abdd3e4e5414bd00c2f3f99a3034202043414c4cf10000000000000000000000000000000000000083197ef00000000000000000000000000000000000000000000000000000000000000000000000000000000000000000ec2a87e85251ba35abdd3e4e5414bd00c2f3f99a3035202043414c4cf10000000000000000000000000000000000000000000000000000000000000000000000000000000000000000000000016345785d8a000000000000000000000000000000000000000000000000000000000000000000013036202020202020f500000000000000000000000000000000001500000000000000000000000000000000000000000000000000000000000000000000000271608060405261025e806100136000396000f3fe6080604052600436106100335760003560e01c801561003f5780636dbf2fa01461004957806383197ef01461007257600080fd5b3661003a57005b600080fd5b610047610078565b005b61005c610057366004610135565b6100a7565b60405161006991906101ca565b60405180910390f35b61004730ff5b60405133904780156108fc02916000818181858888f193505050501580156100a4573d6000803e3d6000fd5b50565b60606001600160a01b0385166100bc57600080fd5b600080866001600160a01b03168686866040516100da929190610218565b60006040518083038185875af1925050503d8060008114610117576040519150601f19603f3d011682016040523d82523d6000602084013e61011c565b606091505b50915091508161012b57600080fd5b9695505050505050565b6000806000806060858703121561014b57600080fd5b84356001600160a01b038116811461016257600080fd5b935060208501359250604085013567ffffffffffffffff8082111561018657600080fd5b818701915087601f83011261019a57600080fd5b8135818111156101a957600080fd5b8860208285010111156101bb57600080fd5b95989497505060200194505050565b600060208083528351808285015260005b818110156101f7578581018301518582016040015282016101db565b506000604082860101526040601f19601f8301168501019250505092915050565b818382376000910190815291905056fea2646970667358221220253e1354aa1f28c312aec4458a9537037be782c81d97c6ebc3f321d807dfe25d64736f6c634300081100330000000000000000000000000000000000000000000000000000000000000000000000000000000000000000000028000000000000000000000000802bb2e2eefdfa1b7d2a1e2042431624f764eadc3037202020202020fe0051001e000000000000000000000000000000000000000000000000000000000000000000000000000000000000000000000000000000000000000000000000000000802bb2e2eefdfa1b7d2a1e2042431624f764eadc3038202043414c4cf1000000000000000000000000000000000004006dbf2fa0000000000000000000000000000000000000df8c944e775bde7af503009992830000000000000000000000000000000000000000000000000000000000000000000000000000000000000000000000000000000000000000000000000000006000000000000000000000000000000000000000000000000000000000000000000000000000000000000000000000000000000000000000000000000000000000000000000000000000000000802bb2e2eefdfa1b7d2a1e2042431624f764eadc3039202043414c4cf10000000000000000000000000000000000000083197ef00000000000000000000000000000000000000000000000000000000000000000000000000000000000000000802bb2e2eefdfa1b7d2a1e2042431624f764eadc3130202043414c4cf1000000000000000000000000000000000000000000000000000000000000000000000000000000000000000000000000000000000000010000000000000000000000000000000000000000000000000000000000000000313152455455524ef3000000005a0147000000000000000000000200000000000000000000000000000000000000000000000000000000000000000000000000000000000000000000000000000000000000000000000000000000000000000082036ba0b5022cde5714491b6185b46f09f0d021e9379353020e4da895bb8b65b6e1c802a013fc2716d2d92ae43cf470b2b2352280a4f018c0d9b805042f01ea3b22cc6618"
    }
  ],
  "transactionsRoot": "0x4c3a58f85b2af2ef6ef13e47ba540fb1430148948b82411d038d566b7f3288a4",
  "uncles": []
}
