{
    "difficulty": "0x2",
    "extraData": "0xd98301090a846765746889676f312e31352e3133856c696e7578000000000000c224cfcced24d6a8839b098fc907204aac020d168bfefb9484c9c49aae7fa31277e2c525c5fb8b039d818c4f9025779512e19d242dc9600e3d73b4674ca10a2f01",
    "gasLimit": "0xe4e1c0",
    "gasUsed": "0x1c2ca",
    "hash": "0x41e5edf1a1f83c824b126ddbc089049183224e35567396df50cb67454c41b46f",
    "logsBloom": "0x00000000000000000010000000000000000000000000001000100000001000000000000000000080000000000000008000000800000000000000000000000240000000000000400040080008000000000000000000000000000000000000000100000000020000000000000000000800080000000040000000000010000000000000000000000000000000000000000000800000000000000021000000200000000000000000000001000000000000000008200000000000000000000000000000000002000000000000000400000000000002100000000000000000000020001000000000000000000000000000000000000000000000000000010000000000",
    "miner": "0x0000000000000000000000000000000000000000",
    "mixHash": "0x0000000000000000000000000000000000000000000000000000000000000000",
    "nonce": "0x0000000000000000",
    "number": "0xf0979",
    "parentHash": "0x30b60e9bc32620696c9158c8ee1eb3e59e4dff2828e83e594dc481ccd0681330",
    "receiptsRoot": "0x62bb83641fbbea6f777625b5d8ad5dd7ec4096849302aad7c9a0834de0ae8700",
    "sha3Uncles": "0x1dcc4de8dec75d7aab85b567b6ccd41ad312451b948a7413f0a142fd40d49347",
    "size": "0x370",
    "stateRoot": "0x4ff42f56d072d521500a36939166c5507770741e827999eae114bcb848e925a9",
    "timestamp": "0x631b9892",
    "totalDifficulty": "0x1e12f3",
    "transactions": [
        {
            "blockHash": "0x41e5edf1a1f83c824b126ddbc089049183224e35567396df50cb67454c41b46f",
            "blockNumber": "0xf0979",
            "from": "0x74027a6329f05dde6981728eade590abe859e0ae",
            "gas": "0x927c0",
            "gasPrice": "0x1",
            "hash": "0x4ee3a15e4ff6c8e8c6ff64c6a2e74ebce90eccb2e479d7488f5bb070727a3e5c",
            "input": "0x32b7006d000000000000000000000000deaddeaddeaddeaddeaddeaddeaddeaddead0000000000000000000000000000000000000000000000000000016345785d8a0000000000000000000000000000000000000000000000000000000000000000000000000000000000000000000000000000000000000000000000000000000000800000000000000000000000000000000000000000000000000000000000000000",
            "nonce": "0x0",
            "to": "0x4200000000000000000000000000000000000010",
            "transactionIndex": "0x0",
            "value": "0x0",
            "v": "0x36c",
            "r": "0x66d615bcc8489bd83b1c89283d26e0033fcb92408aef54f14d2a643d7e459ae9",
            "s": "0x2aac568eb91f0e3a996ece52deef0bd4c8248825eae4dffa78cc768f51431557",
            "queueOrigin": "sequencer",
            "l1TxOrigin": null,
            "l1BlockNumber": "0x735fdd",
            "l1Timestamp": "0x631b9892",
            "index": "0xf0978",
            "queueIndex": null,
            "rawTransaction": "0xf901078001830927c094420000000000000000000000000000000000001080b8a432b7006d000000000000000000000000deaddeaddeaddeaddeaddeaddeaddeaddead0000000000000000000000000000000000000000000000000000016345785d8a000000000000000000000000000000000000000000000000000000000000000000000000000000000000000000000000000000000000000000000000000000000080000000000000000000000000000000000000000000000000000000000000000082036ca066d615bcc8489bd83b1c89283d26e0033fcb92408aef54f14d2a643d7e459ae9a02aac568eb91f0e3a996ece52deef0bd4c8248825eae4dffa78cc768f51431557"
        }
    ],
    "transactionsRoot": "0x95eb3e2f98d1a93a6441d6e0f436c4b2320d37840018b9758fd801106c5339ad",
    "uncles": []
}
