{
  "difficulty": "0x2",
  "extraData": "0xd98301090a846765746889676f312e31352e3133856c696e7578000000000000e81bf5b12821cf9f52d2d68c87b4e6e956086a10f58bc5ab95cf241afcc9ab0756910e784b4bd12b55f2fe68bd3d10f7f47c724ee4ed595701906d209a55872f00",
  "gasLimit": "0xe4e1c0",
  "gasUsed": "0x9c58",
  "hash": "0x91aeed618627779022204a2b12ce98129105ee8bf68b9898cefa99e16905f3c5",
  "logsBloom": "0x00000000000000000000000000000000000000000000000000000000000000000000000000000000000000000000000000000000000000000000000000000000000000000000000000000000000000000000000000000000000000000000000000000000000000000000000000000000000000000000000000000000000000000000000000000000000000000000000000000000000000000000000000000000000000000000000000000000000000000000000000000000000000000000000000000000000000000000000000000000000000000000000000000000000000000000000000000000000000000000000000000000000000000000000000000000",
  "miner": "0x0000000000000000000000000000000000000000",
  "mixHash": "0x0000000000000000000000000000000000000000000000000000000000000000",
  "nonce": "0x0000000000000000",
  "number": "0xe3d23b",
  "parentHash": "0xa27c7d9adf5b0d2ac76780302da298dc02f4a9e18051900095da9a32f13d0c32",
  "receiptsRoot": "0xf2fedda4c84a5d3626fc34ed37b5758e99ba0444ada81fa26ade4fe8b4fedef6",
  "sha3Uncles": "0x1dcc4de8dec75d7aab85b567b6ccd41ad312451b948a7413f0a142fd40d49347",
  "size": "0x30f",
  "stateRoot": "0x3f6e4c2229f4f4c86661a5ebacff5d3c32632bdfef4c65e69aac8a6690a0b440",
  "timestamp": "0x62d5f8b3",
  "totalDifficulty": "0x1c7a477",
  "transactions": [
    {
      "blockHash": "0x91aeed618627779022204a2b12ce98129105ee8bf68b9898cefa99e16905f3c5",
      "blockNumber": "0xe3d23b",
      "from": "0xd839c179a4606f46abd7a757f7bb77d7593ae249",
      "gas": "0x9c58",
      "gasPrice": "0xf4240",
      "hash": "0x5a1ec671315432cf8b6a67d95b857109fcafae277ae2c673db40b44ca8dd5c1b",
      "input": "0xa9059cbb0000000000000000000000005c4c6c6d0358baf2ade28ffb1723e70139cd534d000000000000000000000000000000000000000000000a577c577becd66d3c00",
      "nonce": "0x125",
      "to": "0x4200000000000000000000000000000000000042",
      "transactionIndex": "0x0",
      "value": "0x0",
      "v": "0x37",
      "r": "0x3c248b94e496a54f0e46aeb328d07b8f418525f8f334b521bc9093790d7045e5",
      "s": "0x8091000feee26f361f396254fff6a904582e7d98fd527aee73161d1042fbac2",
      "queueOrigin": "sequencer",
      "l1TxOrigin": null,
      "l1BlockNumber": "0xe778c6",
      "l1Timestamp": "0x62d5f8b3",
      "index": "0xe3d23a",
      "queueIndex": null,
      "rawTransaction": "0xf8a9820125830f4240829c5894420000000000000000000000000000000000004280b844a9059cbb0000000000000000000000005c4c6c6d0358baf2ade28ffb1723e70139cd534d000000000000000000000000000000000000000000000a577c577becd66d3c0037a03c248b94e496a54f0e46aeb328d07b8f418525f8f334b521bc9093790d7045e5a008091000feee26f361f396254fff6a904582e7d98fd527aee73161d1042fbac2"
    }
  ],
  "transactionsRoot": "0x6e32affdba2977c21506b29c7e4a637480b298bb352dc1d87fb8655fc4178360",
  "uncles": []
}
