{
  "difficulty": "0x2",
  "extraData": "0xd98301090a846765746889676f312e31352e3133856c696e75780000000000003f3f5bfcf6f8c962104993c044750c4aac5e0ef7ae599931c1c35777274283b350862464f0056f6df5c1449301a0082b5a7f44a6973cecde6559bba624e3d2ae01",
  "gasLimit": "0xe4e1c0",
  "gasUsed": "0x3909",
  "hash": "0x079123776bf0143620ed14b344961867cdcacba2d11f1f70ad258dc44e4ac2f7",
  "logsBloom": "0x00000000000000000000000000000000000000000000000000000000000000000000000000000000000000000000000000000000000000000000000000000000000000000000000000000000000000000000000000000000000000000000000000000000000000000000000000000000000000000000000000000000000000000000000000000000000000000000000000000000000000000000000000000000000000000000000000000000000000000000000000000000000000000000000000000000000000000000000000000000000000000000000000000000000000000000000000000000000000000000000000000000000000000000000000000000",
  "miner": "0x0000000000000000000000000000000000000000",
  "mixHash": "0x0000000000000000000000000000000000000000000000000000000000000000",
  "nonce": "0x0000000000000000",
  "number": "0x16ee77",
  "parentHash": "0x721b370c6050093d77588571ba604c94b9d405b4dca069ea2d665f6629a83c73",
  "receiptsRoot": "0xe456588ca593417129006ceb19fd6fc0e95075653d8d94617fcfeac5475f77e9",
  "sha3Uncles": "0x1dcc4de8dec75d7aab85b567b6ccd41ad312451b948a7413f0a142fd40d49347",
  "size": "0x2ec",
  "stateRoot": "0x579f06815a0a3f686a76a099c992643b902a3d71d1698fbacd519ea54ee73b1a",
  "timestamp": "0x61c568c9",
  "totalDifficulty": "0x2ddcef",
  "transactions": [
    {
      "blockHash": "0x079123776bf0143620ed14b344961867cdcacba2d11f1f70ad258dc44e4ac2f7",
      "blockNumber": "0x16ee77",
      "from": "0x3d080421c9dd5fb387d6e3124f7e1c241ade9568",
      "gas": "0x7212",
      "gasPrice": "0xf4240",
      "hash": "0x3ff079ba4ea0745401e9661d623550d24c9412ea9ad578bfbb0d441dadcce9bc",
      "input": "0xcbf0b0c00000000000000000000000003d080421c9dd5fb387d6e3124f7e1c241ade9568",
      "nonce": "0x37",
      "to": "0x40c539bbe076b91fdf681e6b4b84bd1fe1f148d9",
      "transactionIndex": "0x0",
      "value": "0x0",
      "v": "0x38",
      "r": "0x4c4a10dfefe663d7a8e7248cd031528b4025a143993a229f23a26dd25cc0cd01",
      "s": "0x51710fef189ddbb2a03a6e7097e1f454687738d2cf459079b16154730d81bade",
      "queueOrigin": "sequencer",
      "l1TxOrigin": null,
      "l1BlockNumber": "0xd3952b",
      "l1Timestamp": "0x61c568c9",
      "index": "0x16ee76",
      "queueIndex": null,
      "rawTransaction": "0xf88637830f42408272129440c539bbe076b91fdf681e6b4b84bd1fe1f148d980a4cbf0b0c00000000000000000000000003d080421c9dd5fb387d6e3124f7e1c241ade956838a04c4a10dfefe663d7a8e7248cd031528b4025a143993a229f23a26dd25cc0cd01a051710fef189ddbb2a03a6e7097e1f454687738d2cf459079b16154730d81bade"
    }
  ],
  "transactionsRoot": "0x919144f2574a7ac80ca4abfa850c888deae98c77f165704c8e96bbb13bf375cf",
  "uncles": []
}
