{
    "difficulty": "0x2",
    "extraData": "0xd98301090a846765746889676f312e31352e3133856c696e757800000000000048585b9a86ac8cfb708efabb8a30e5699baa03231abc7e4efdd26be637b39f54044a8e5a0a3b48184c57ec758d98ab3451ce0469d93a5334b596cee8cbb67f1300",
    "gasLimit": "0xe4e1c0",
    "gasUsed": "0x2534b",
    "hash": "0x0d35e7b4046195842623ec858648497936c906523ea0d477083d0457b7b8a6b2",
    "logsBloom": "0x00000000000000000000000000000000000000000000000000000000000000000000000000000000000000000000000000000000000000000000000000004000000000000000000004000008000000000000000000000000000000000000000000000000020000000000000000000800100000000000000000000010000000000000000000000000000000000000000000000000000000000000000080000000000000000400000000000000000000000000000000000000000000000000000000000002000000000004000000000000000000000000000000000000000020000000000000000000000000000000000000000000000000000000000000000000",
    "miner": "0x0000000000000000000000000000000000000000",
    "mixHash": "0x0000000000000000000000000000000000000000000000000000000000000000",
    "nonce": "0x0000000000000000",
    "number": "0x12f062",
    "parentHash": "0xf1556dcdb1e98a2df807a77c77560ef5542e1a948f372bdde4776094b0588fa9",
    "receiptsRoot": "0xb8a45f2bf54faf21471eb35951f31658b6c85745e05bd2fe6383c5422eb61182",
    "sha3Uncles": "0x1dcc4de8dec75d7aab85b567b6ccd41ad312451b948a7413f0a142fd40d49347",
    "size": "0x30f",
    "stateRoot": "0xd0df4c5293614ab6f6fed57935155b429371915bd8bcd43e392fdc980781034e",
    "timestamp": "0x62164e13",
    "totalDifficulty": "0x25e0c5",
    "transactions": [
        {
            "blockHash": "0x0d35e7b4046195842623ec858648497936c906523ea0d477083d0457b7b8a6b2",
            "blockNumber": "0x12f062",
            "from": "0x7492ce19d83b3a0bac1bebc9706ce0df4add105f",
            "gas": "0x2534b",
            "gasPrice": "0x2710",
            "hash": "0xd919fe87c4bc24f767d1b7a165266658d542af9e3f9bc11dd1a2d1f4695df009",
            "input": "0x40c10f190000000000000000000000007492ce19d83b3a0bac1bebc9706ce0df4add105f00000000000000000000000000000000000000000de0b6b3a764000000000000",
            "nonce": "0x38",
            "to": "0x55c34ce12566cd4a0625e58c09f38d92d991e7b5",
            "transactionIndex": "0x0",
            "value": "0x0",
            "v": "0xad",
            "r": "0xc112c08b20492bcfe0bcb7cb2b56526ce1c12309fe8203050ec9ba6314718d9e",
            "s": "0x52aa0fdf0fee238ee01762f0fe085ddb226024bf922bf733b864b1df1728728",
            "queueOrigin": "sequencer",
            "l1TxOrigin": null,
            "l1BlockNumber": "0x1c9bcdf",
            "l1Timestamp": "0x62164e13",
            "index": "0x12f061",
            "queueIndex": null,
            "rawTransaction": "0xf8a8388227108302534b9455c34ce12566cd4a0625e58c09f38d92d991e7b580b84440c10f190000000000000000000000007492ce19d83b3a0bac1bebc9706ce0df4add105f00000000000000000000000000000000000000000de0b6b3a76400000000000081ada0c112c08b20492bcfe0bcb7cb2b56526ce1c12309fe8203050ec9ba6314718d9ea0052aa0fdf0fee238ee01762f0fe085ddb226024bf922bf733b864b1df1728728"
        }
    ],
    "transactionsRoot": "0x9e23749ee97bae9358c6be8208777552f1a0d1285a48ca4b16cb1508aaf6308d",
    "uncles": []
}
