{
  "difficulty": "0x2",
  "extraData": "0xd98301090a846765746889676f312e31352e3133856c696e75780000000000006c51a6b6ae98c1bdcb3fb55d02f75ff45a8a76c80ba48476567c85e8cd28417978c249b4692fab561df8daf0c9dcf7638d36b76cf2de2e800a5d95d726b8c8dd01",
  "gasLimit": "0xe4e1c0",
  "gasUsed": "0x5208",
  "hash": "0xf9c036c3ee79d13b5d59c4d1c167523b2cc71e40f1a95eabf0b1225771553c74",
  "logsBloom": "0x00000000000000000000000000000000000000000000000000000000000000000000000000000000000000000000000000000000000000000000000000000000000000000000000000000000000000000000000000000000000000000000000000000000000000000000000000000000000000000000000000000000000000000000000000000000000000000000000000000000000000000000000000000000000000000000000000000000000000000000000000000000000000000000000000000000000000000000000000000000000000000000000000000000000000000000000000000000000000000000000000000000000000000000000000000000",
  "miner": "0x0000000000000000000000000000000000000000",
  "mixHash": "0x0000000000000000000000000000000000000000000000000000000000000000",
  "nonce": "0x0000000000000000",
  "number": "0x59c3b",
  "parentHash": "0x87f049020a3789a73ade3c43c6222468495adac48384c32ba71f8c844d4de3c7",
  "receiptsRoot": "0x056b23fbba480696b65fe5a59b8f2148a1299103c4f57df839233af2cf4ca2d2",
  "sha3Uncles": "0x1dcc4de8dec75d7aab85b567b6ccd41ad312451b948a7413f0a142fd40d49347",
  "size": "0x2cf",
  "stateRoot": "0x61dfdc69aa2134bfc0ff0fc06896187923d84b0f76920200efb872d5e091b86b",
  "timestamp": "0x62f6619f",
  "totalDifficulty": "0xb3877",
  "transactions": [
    {
      "blockHash": "0xf9c036c3ee79d13b5d59c4d1c167523b2cc71e40f1a95eabf0b1225771553c74",
      "blockNumber": "0x59c3b",
      "from": "0xabc4ef774f44beb2dc7adc80f3c560ab51f08d4b",
      "gas": "0x5208",
      "gasPrice": "0x0",
      "hash": "0x2992c7d87b09484c5940f7d649bd9957c629a43ac477473b655dbb07d8c742a5",
      "input": "0x",
      "nonce": "0x8",
      "to": "0xb577c1d00cf6f7fb50b1587db60219d50b50ea40",
      "transactionIndex": "0x0",
      "value": "0x16345785d8a0000",
      "v": "0x36b",
      "r": "0x9439657d8bcea2924994b50b53fe49a4bceb19e7fc195e271fbc873a8cadd4c3",
      "s": "0x1c5290fc63a48577c76ed92d25540a05d144e2865120198d71e7493215f0945b",
      "queueOrigin": "sequencer",
      "l1TxOrigin": null,
      "l1BlockNumber": "0x70c922",
      "l1Timestamp": "0x62f6619f",
      "index": "0x59c3a",
      "queueIndex": null,
      "rawTransaction": "0xf869088082520894b577c1d00cf6f7fb50b1587db60219d50b50ea4088016345785d8a00008082036ba09439657d8bcea2924994b50b53fe49a4bceb19e7fc195e271fbc873a8cadd4c3a01c5290fc63a48577c76ed92d25540a05d144e2865120198d71e7493215f0945b"
    }
  ],
  "transactionsRoot": "0x859781139edaec7e0305dee3b5210133537c4345652fa643a75a07a5f64995e5",
  "uncles": []
}
